:100000000C942A000C9447000C9447000C94470071
:100010000C9447000C9447000C9447000C94470044
:100020000C9447000C9447000C94C0050C944700B6
:100030000C9447000C9447000C9447000C94470024
:100040000C9447000C9447000C9447000C94470014
:100050000C94470011241FBECFE5D8E0DEBFCDBF12
:1000600010E0A0E6B0E0E0ECFCE002C005900D92EC
:10007000A436B107D9F710E0A4E6B0E001C01D92A4
:10008000AE37B107E1F70E94ED050C945E060C94C3
:100090000000DF93CF93CDB7DEB728970FB6F89463
:1000A000DEBF0FBECDBF8A836B834C8319828B81E9
:1000B000883008F0F4C08C81882309F077C08A81E9
:1000C000282F30E038872F838F81988581309105E4
:1000D00059F12F813885223031052CF48F81988594
:1000E000009769F060C02F8138852230310589F191
:1000F0008F8198858330910509F440C054C0AAE3EC
:10010000B0E0EAE3F0E08081482F8B81282F30E0D7
:1001100081E090E0022E02C0880F991F0A94E2F756
:10012000809584238C93BDC0A7E3B0E0E7E3F0E0C3
:100130008081482F8B81282F30E081E090E0022ED3
:1001400002C0880F991F0A94E2F7809584238C934C
:10015000A8C0A4E3B0E0E4E3F0E08081482F8B8105
:10016000282F30E081E090E0022E02C0880F991F16
:100170000A94E2F7809584238C9393C0A1E3B0E0C6
:10018000E1E3F0E08081482F8B81282F30E081E08F
:1001900090E0022E02C0880F991F0A94E2F7809522
:1001A00084238C937EC081E089837BC08C818130E5
:1001B00009F072C08A81282F30E03E832D838D8123
:1001C0009E818130910549F12D813E81223031059A
:1001D0002CF48D819E81009761F05BC02D813E8162
:1001E0002230310571F18D819E8183309105E9F1D5
:1001F00050C0AAE3B0E0EAE3F0E08081482F8B81B1
:10020000282F30E081E090E0022E02C0880F991F75
:100210000A94E2F7842B8C9344C0A7E3B0E0E7E3B1
:10022000F0E08081482F8B81282F30E081E090E042
:10023000022E02C0880F991F0A94E2F7842B8C9338
:1002400030C0A4E3B0E0E4E3F0E08081482F8B818C
:10025000282F30E081E090E0022E02C0880F991F25
:100260000A94E2F7842B8C931CC0A1E3B0E0E1E395
:10027000F0E08081482F8B81282F30E081E090E0F2
:10028000022E02C0880F991F0A94E2F7842B8C93E8
:1002900008C081E0898305C081E0898302C081E0D4
:1002A0008983898128960FB6F894DEBF0FBECDBF33
:1002B000CF91DF910895DF93CF9300D000D00F92BC
:1002C000CDB7DEB78A836B8319828A81282F30E00D
:1002D0003D832C838C819D8181309105D1F02C81CF
:1002E0003D81223031052CF48C819D81009761F095
:1002F0001FC02C813D812230310581F08C819D8190
:100300008330910581F014C0EAE3F0E08B818083B3
:1003100011C0E7E3F0E08B8180830CC0E4E3F0E000
:100320008B81808307C0E1E3F0E08B81808302C092
:1003300081E0898389810F900F900F900F900F902B
:10034000CF91DF910895DF93CF93CDB7DEB7289794
:100350000FB6F894DEBF0FBECDBF8A836B834C838C
:1003600019828B81883008F0F4C08C81882309F0D1
:1003700077C08A81282F30E038872F838F81988536
:100380008130910559F12F813885223031052CF4C7
:100390008F819885009769F060C02F813885223061
:1003A000310589F18F8198858330910509F440C02A
:1003B00054C0ABE3B0E0EBE3F0E08081482F8B81E9
:1003C000282F30E081E090E0022E02C0880F991FB4
:1003D0000A94E2F7809584238C93BDC0A8E3B0E033
:1003E000E8E3F0E08081482F8B81282F30E081E026
:1003F00090E0022E02C0880F991F0A94E2F78095C0
:1004000084238C93A8C0A5E3B0E0E5E3F0E080810D
:10041000482F8B81282F30E081E090E0022E02C02F
:10042000880F991F0A94E2F7809584238C9393C0D8
:10043000A2E3B0E0E2E3F0E08081482F8B81282F37
:1004400030E081E090E0022E02C0880F991F0A94EC
:10045000E2F7809584238C937EC081E089837BC002
:100460008C81813009F072C08A81282F30E03E8370
:100470002D838D819E818130910549F12D813E81B1
:10048000223031052CF48D819E81009761F05BC094
:100490002D813E812230310571F18D819E81833025
:1004A0009105E9F150C0ABE3B0E0EBE3F0E080810F
:1004B000482F8B81282F30E081E090E0022E02C08F
:1004C000880F991F0A94E2F7842B8C9344C0A8E309
:1004D000B0E0E8E3F0E08081482F8B81282F30E006
:1004E00081E090E0022E02C0880F991F0A94E2F783
:1004F000842B8C9330C0A5E3B0E0E5E3F0E080818D
:10050000482F8B81282F30E081E090E0022E02C03E
:10051000880F991F0A94E2F7842B8C931CC0A2E3E6
:10052000B0E0E2E3F0E08081482F8B81282F30E0BB
:1005300081E090E0022E02C0880F991F0A94E2F732
:10054000842B8C9308C081E0898305C081E0898376
:1005500002C081E08983898128960FB6F894DEBFB6
:100560000FBECDBFCF91DF910895DF93CF9300D021
:1005700000D00F92CDB7DEB78A836B8319828A8150
:10058000282F30E03D832C838C819D818130910523
:10059000D1F02C813D81223031052CF48C819D815C
:1005A000009761F01FC02C813D812230310581F020
:1005B0008C819D818330910581F014C0EBE3F0E0E4
:1005C0008B81808311C0E8E3F0E08B8180830CC0D5
:1005D000E5E3F0E08B81808307C0E2E3F0E08B810C
:1005E000808302C081E0898389810F900F900F90F2
:1005F0000F900F90CF91DF910895DF93CF93CDB7F8
:10060000DEB727970FB6F894DEBF0FBECDBF8A8343
:100610006B835D834C8319828B81883008F07CC0AA
:10062000EC81FD818081882F90E0009709F474C0EF
:100630008A81282F30E03F832E834E815F814130B5
:10064000510559F18E819F818230910534F42E81BC
:100650003F812115310569F05CC04E815F814230D8
:10066000510579F18E819F818330910509F43DC058
:1006700050C0E9E3F0E08081282F30E08B81882FA3
:1006800090E0A90102C0559547958A95E2F7CA0105
:100690008170EC81FD81808341C0E6E3F0E08081E0
:1006A000282F30E08B81882F90E0A90102C055955A
:1006B00047958A95E2F7CA018170EC81FD818083BC
:1006C0002DC0E3E3F0E08081282F30E08B81882F7C
:1006D00090E0A90102C0559547958A95E2F7CA01B5
:1006E0008170EC81FD81808319C0E0E3F0E08081BE
:1006F000282F30E08B81882F90E0A90102C055950A
:1007000047958A95E2F7CA018170EC81FD8180836B
:1007100005C081E0898302C081E0898389812796B1
:100720000FB6F894DEBF0FBECDBFCF91DF91089515
:10073000DF93CF93CDB7DEB7AFE5B0E0EFE5F0E004
:10074000808180688C93CF91DF910895DF93CF9360
:10075000CDB7DEB7AFE5B0E0EFE5F0E080818F77B1
:100760008C93CF91DF910895DF93CF9300D0CDB7D5
:10077000DEB789836A839091640081E08927809342
:1007800064008981682F70E08A81482F50E0809151
:100790006400282F30E0CB01BA01A9010E94A30117
:1007A0000F900F90CF91DF910895DF93CF93CDB746
:1007B000DEB7EAE3F0E08FEF8083E7E3F0E08FEF6E
:1007C0008083E4E3F0E08FEF8083E1E3F0E08FEFFC
:1007D0008083EBE3F0E01082E8E3F0E01082E5E3F1
:1007E000F0E086E08083E2E3F0E01082CF91DF91D9
:1007F0000895DF93CF93CDB7DEB78CE694E00E94E7
:10080000AE050E946B050E949803CF91DF91089579
:10081000DF93CF9300D000D000D0CDB7DEB79A835E
:1008200089836B835D834C838B81282F30E0C901E2
:10083000880F991F880F991F880F991F821B930B90
:10084000FC01E659FF4F808191810097D1F58B81A2
:10085000282F30E0C901880F991F880F991F880F32
:10086000991F821B930BFC01EB59FF4F89819A81E1
:10087000918380838B81282F30E0C901880F991FD5
:10088000880F991F880F991F821B930BFC01E65953
:10089000FF4F8C819D81918380838B81282F30E055
:1008A000C901880F991F880F991F880F991F821BF4
:1008B000930BFC01E759FF4F81E0808381E08E8339
:1008C00001C01E828E8126960FB6F894DEBF0FBE41
:1008D000CDBFCF91DF910895DF93CF930F92CDB726
:1008E000DEB71982198257C08981282F30E0C901EB
:1008F000880F991F880F991F880F991F821B930BD0
:10090000FC01E759FF4F8081813009F041C04091DF
:100910007A0050917B008981282F30E0C901880F2F
:10092000991F880F991F880F991F821B930BFC0139
:10093000EB59FF4F20813181CA01B9010E944A065B
:10094000009731F58981282F30E0C901880F991F60
:10095000880F991F880F991F821B930BFC01E65982
:10096000FF4F80819181009799F08981282F30E095
:10097000C901880F991F880F991F880F991F821B23
:10098000930BFC01E659FF4F0190F081E02D099592
:1009900089818F5F89838981833008F4A5CF809115
:1009A0007A0090917B00019690937B0080937A006F
:1009B0000F90CF91DF910895DF93CF9300D0CDB703
:1009C000DEB7898389818330A0F48981282F30E0C4
:1009D000C901880F991F880F991F880F991F821BC3
:1009E000930BFC01E659FF4F1182108282E08A834B
:1009F00002C083E08A838A810F900F90CF91DF91AC
:100A00000895DF93CF9300D0CDB7DEB78983898176
:100A1000282F30E0C901880F991F880F991F880F70
:100A2000991F821B930BFC01E659FF4F8081918136
:100A30000097A1F08981282F30E0C901880F991F04
:100A4000880F991F880F991F821B930BFC01E75990
:100A5000FF4F81E0808386E08A8302C087E08A833B
:100A60008A810F900F90CF91DF910895DF93CF93FC
:100A700000D0CDB7DEB789838981282F30E0C90146
:100A8000880F991F880F991F880F991F821B930B3E
:100A9000FC01E659FF4F808191810097A1F0898187
:100AA000282F30E0C901880F991F880F991F880FE0
:100AB000991F821B930BFC01E759FF4F82E0808353
:100AC00084E08A8302C085E08A838A810F900F9038
:100AD000CF91DF910895DF93CF93CDB7DEB7A3E534
:100AE000B0E0E3E5F0E080818F7B8C93A3E5B0E09C
:100AF000E3E5F0E0808188608C93A3E5B0E0E3E576
:100B0000F0E080818F7E8C93A3E5B0E0E3E5F0E038
:100B100080818F7D8C93ECE5F0E08DE78083A9E503
:100B2000B0E0E9E5F0E0808182608C93A3E5B0E07D
:100B3000E3E5F0E0808181608C93A3E5B0E0E3E53C
:100B4000F0E0808182608C93A3E5B0E0E3E5F0E023
:100B500080818B7F8C93CF91DF910895DF93CF932A
:100B600000D0CDB7DEB79A83898389819A8190932B
:100B70007D0080937C000F900F90CF91DF910895BE
:100B80001F920F920FB60F9211242F933F934F9302
:100B90005F936F937F938F939F93AF93BF93EF93E5
:100BA000FF93DF93CF93CDB7DEB7E0917C00F09158
:100BB0007D000995CF91DF91FF91EF91BF91AF91AA
:100BC0009F918F917F916F915F914F913F912F9165
:100BD0000F900FBE0F901F901895DF93CF93CDB756
:100BE000DEB70E94D5030E94F9032EE036E08AE0CA
:100BF00090E060E0A9010E94080422E236E084E16E
:100C000090E061E0A9010E94080426E336E08EE14D
:100C100090E062E0A9010E940804FFCFDF93CF9328
:100C2000CDB7DEB79091600083E065E0492F0E9468
:100C3000A3019091600081E0892780936000CF91AB
:100C4000DF910895DF93CF93CDB7DEB79091610028
:100C500083E066E0492F0E94A3019091610081E04A
:100C6000892780936100CF91DF910895DF93CF931F
:100C7000CDB7DEB79091620083E067E0492F0E9414
:100C8000A3019091620081E0892780936200CF9157
:100C9000DF910895AA1BBB1B51E107C0AA1FBB1F10
:100CA000A617B70710F0A61BB70B881F991F5A95F8
:100CB000A9F780959095BC01CD010895F894FFCFD8
:040CC000010101002D
:00000001FF
