:100000000C942A000C9447000C9447000C94470071
:100010000C9447000C9447000C9447000C94470044
:100020000C9447000C9447000C943D0A0C94470034
:100030000C9447000C9447000C9447000C94470024
:100040000C9447000C9447000C9447000C94470014
:100050000C94470011241FBECFE5D8E0DEBFCDBF12
:1000600010E0A0E6B0E0EAE0FCE102C005900D92ED
:10007000AE3DB107D9F711E0AEEDB0E001C01D9281
:10008000AA32B107E1F70E946A0A0C94030E0C949D
:100090000000DF93CF93CDB7DEB728970FB6F89463
:1000A000DEBF0FBECDBF8A836B834C8319828B81E9
:1000B000883008F0F4C08C81882309F077C08A81E9
:1000C000282F30E038872F838F81988581309105E4
:1000D00059F12F813885223031052CF48F81988594
:1000E000009769F060C02F8138852230310589F191
:1000F0008F8198858330910509F440C054C0AAE3EC
:10010000B0E0EAE3F0E08081482F8B81282F30E0D7
:1001100081E090E0022E02C0880F991F0A94E2F756
:10012000809584238C93BDC0A7E3B0E0E7E3F0E0C3
:100130008081482F8B81282F30E081E090E0022ED3
:1001400002C0880F991F0A94E2F7809584238C934C
:10015000A8C0A4E3B0E0E4E3F0E08081482F8B8105
:10016000282F30E081E090E0022E02C0880F991F16
:100170000A94E2F7809584238C9393C0A1E3B0E0C6
:10018000E1E3F0E08081482F8B81282F30E081E08F
:1001900090E0022E02C0880F991F0A94E2F7809522
:1001A00084238C937EC081E089837BC08C818130E5
:1001B00009F072C08A81282F30E03E832D838D8123
:1001C0009E818130910549F12D813E81223031059A
:1001D0002CF48D819E81009761F05BC02D813E8162
:1001E0002230310571F18D819E8183309105E9F1D5
:1001F00050C0AAE3B0E0EAE3F0E08081482F8B81B1
:10020000282F30E081E090E0022E02C0880F991F75
:100210000A94E2F7842B8C9344C0A7E3B0E0E7E3B1
:10022000F0E08081482F8B81282F30E081E090E042
:10023000022E02C0880F991F0A94E2F7842B8C9338
:1002400030C0A4E3B0E0E4E3F0E08081482F8B818C
:10025000282F30E081E090E0022E02C0880F991F25
:100260000A94E2F7842B8C931CC0A1E3B0E0E1E395
:10027000F0E08081482F8B81282F30E081E090E0F2
:10028000022E02C0880F991F0A94E2F7842B8C93E8
:1002900008C081E0898305C081E0898302C081E0D4
:1002A0008983898128960FB6F894DEBF0FBECDBF33
:1002B000CF91DF910895DF93CF9300D000D00F92BC
:1002C000CDB7DEB78A836B8319828A81282F30E00D
:1002D0003D832C838C819D8181309105D1F02C81CF
:1002E0003D81223031052CF48C819D81009761F095
:1002F0001FC02C813D812230310581F08C819D8190
:100300008330910581F014C0EAE3F0E08B818083B3
:1003100011C0E7E3F0E08B8180830CC0E4E3F0E000
:100320008B81808307C0E1E3F0E08B81808302C092
:1003300081E0898389810F900F900F900F900F902B
:10034000CF91DF910895DF93CF93CDB7DEB7289794
:100350000FB6F894DEBF0FBECDBF8A836B834C838C
:1003600019828B81883008F0F4C08C81882309F0D1
:1003700077C08A81282F30E038872F838F81988536
:100380008130910559F12F813885223031052CF4C7
:100390008F819885009769F060C02F813885223061
:1003A000310589F18F8198858330910509F440C02A
:1003B00054C0ABE3B0E0EBE3F0E08081482F8B81E9
:1003C000282F30E081E090E0022E02C0880F991FB4
:1003D0000A94E2F7809584238C93BDC0A8E3B0E033
:1003E000E8E3F0E08081482F8B81282F30E081E026
:1003F00090E0022E02C0880F991F0A94E2F78095C0
:1004000084238C93A8C0A5E3B0E0E5E3F0E080810D
:10041000482F8B81282F30E081E090E0022E02C02F
:10042000880F991F0A94E2F7809584238C9393C0D8
:10043000A2E3B0E0E2E3F0E08081482F8B81282F37
:1004400030E081E090E0022E02C0880F991F0A94EC
:10045000E2F7809584238C937EC081E089837BC002
:100460008C81813009F072C08A81282F30E03E8370
:100470002D838D819E818130910549F12D813E81B1
:10048000223031052CF48D819E81009761F05BC094
:100490002D813E812230310571F18D819E81833025
:1004A0009105E9F150C0ABE3B0E0EBE3F0E080810F
:1004B000482F8B81282F30E081E090E0022E02C08F
:1004C000880F991F0A94E2F7842B8C9344C0A8E309
:1004D000B0E0E8E3F0E08081482F8B81282F30E006
:1004E00081E090E0022E02C0880F991F0A94E2F783
:1004F000842B8C9330C0A5E3B0E0E5E3F0E080818D
:10050000482F8B81282F30E081E090E0022E02C03E
:10051000880F991F0A94E2F7842B8C931CC0A2E3E6
:10052000B0E0E2E3F0E08081482F8B81282F30E0BB
:1005300081E090E0022E02C0880F991F0A94E2F732
:10054000842B8C9308C081E0898305C081E0898376
:1005500002C081E08983898128960FB6F894DEBFB6
:100560000FBECDBFCF91DF910895DF93CF9300D021
:1005700000D00F92CDB7DEB78A836B8319828A8150
:10058000282F30E03D832C838C819D818130910523
:10059000D1F02C813D81223031052CF48C819D815C
:1005A000009761F01FC02C813D812230310581F020
:1005B0008C819D818330910581F014C0EBE3F0E0E4
:1005C0008B81808311C0E8E3F0E08B8180830CC0D5
:1005D000E5E3F0E08B81808307C0E2E3F0E08B810C
:1005E000808302C081E0898389810F900F900F90F2
:1005F0000F900F90CF91DF910895DF93CF93CDB7F8
:10060000DEB727970FB6F894DEBF0FBECDBF8A8343
:100610006B835D834C8319828B81883008F07CC0AA
:10062000EC81FD818081882F90E0009709F474C0EF
:100630008A81282F30E03F832E834E815F814130B5
:10064000510559F18E819F818230910534F42E81BC
:100650003F812115310569F05CC04E815F814230D8
:10066000510579F18E819F818330910509F43DC058
:1006700050C0E9E3F0E08081282F30E08B81882FA3
:1006800090E0A90102C0559547958A95E2F7CA0105
:100690008170EC81FD81808341C0E6E3F0E08081E0
:1006A000282F30E08B81882F90E0A90102C055955A
:1006B00047958A95E2F7CA018170EC81FD818083BC
:1006C0002DC0E3E3F0E08081282F30E08B81882F7C
:1006D00090E0A90102C0559547958A95E2F7CA01B5
:1006E0008170EC81FD81808319C0E0E3F0E08081BE
:1006F000282F30E08B81882F90E0A90102C055950A
:1007000047958A95E2F7CA018170EC81FD8180836B
:1007100005C081E0898302C081E0898389812796B1
:100720000FB6F894DEBF0FBECDBFCF91DF91089515
:10073000DF93CF93CDB7DEB7AFE5B0E0EFE5F0E004
:10074000808180688C93CF91DF910895DF93CF9360
:10075000CDB7DEB7AFE5B0E0EFE5F0E080818F77B1
:100760008C93CF91DF910895DF93CF9300D0CDB7D5
:10077000DEB789836A839091DE0081E089278093C8
:10078000DE008981682F70E08A81482F50E08091D7
:10079000DE00282F30E0CB01BA01A9010E94A3019D
:1007A0000F900F90CF91DF910895DF93CF93CDB746
:1007B000DEB7EAE3F0E08FEF8083E7E3F0E08FEF6E
:1007C0008083E4E3F0E08FEF8083E1E3F0E08FEFFC
:1007D0008083EBE3F0E01082E8E3F0E01082E5E3F1
:1007E000F0E086E08083E2E3F0E01082CF91DF91D9
:1007F0000895DF93CF93CDB7DEB728970FB6F8945F
:10080000DEBF0FBECDBF9A8389837C836B832D832C
:100810003E834F835887E981FA818B819C81918344
:100820008083E981FA818B819C8195838483E9812E
:10083000FA818B819C8193838283E981FA818D8106
:100840009E81AF81B88586839783A087B187E98130
:10085000FA81128613861486158680E028960FB6D4
:10086000F894DEBF0FBECDBFCF91DF910895DF9327
:10087000CF9300D000D0CDB7DEB79A8389836B8346
:10088000E981FA8180819181009761F0E981FA81A3
:1008900084819581009731F0E981FA818281938189
:1008A000009719F481E08C8334C0E981FA812285B4
:1008B000338544855585E981FA8186819781A085B4
:1008C000B185281739074A075B0719F483E08C8341
:1008D00020C0E981FA810480F581E02D8B8180833D
:1008E000E981FA81848195810196E981FA81958374
:1008F0008483E981FA8182859385A485B5850196F3
:10090000A11DB11DE981FA8182879387A487B587EC
:100910001C828C810F900F900F900F90CF91DF91E0
:100920000895DF93CF9300D000D00F92CDB7DEB7FC
:100930009A8389837C836B83E981FA8180819181A9
:10094000009761F0E981FA8184819581009731F007
:10095000E981FA8182819381009719F481E08D8386
:100960002FC0E981FA8182859385A485B58500979A
:10097000A105B10519F482E08D8322C0E981FA81D5
:100980000280F381E02D8081EB81FC818083E9810D
:10099000FA8182859385A485B5850197A109B1095E
:1009A000E981FA8182879387A487B587E981FA81F3
:1009B000828193810196E981FA81938382831D82EA
:1009C0008D810F900F900F900F900F90CF91DF912E
:1009D0000895DF93CF93CDB7DEB728970FB6F8947D
:1009E000DEBF0FBECDBF9F838E83EE81FF818281EC
:1009F00093819C838B83EE81FF818081918100971D
:100A000061F0EE81FF8184819581009731F0EE8164
:100A1000FF8182819381009719F481E0888753C018
:100A2000EE81FF8182859385A485B5850097A10518
:100A3000B10559F480E690E00E941A0B80E790E03F
:100A40000E941A0B82E088873EC082EA90E00E94F2
:100A50001A0B1A82198220C0EB81FC818081282F19
:100A600030E000D000D0EDB7FEB7319684ED90E0D5
:100A700091838083338322830E94050B0F900F9014
:100A80000F900F908B819C8101969C838B83898131
:100A90009A8101969A83898389819A819C0144274E
:100AA00037FD4095542FEE81FF8182859385A48583
:100AB000B585281739074A075B0770F280E790E091
:100AC0000E941A0B1886888528960FB6F894DEBF08
:100AD0000FBECDBFCF91DF910895DF93CF93CDB7F8
:100AE000DEB788E796E00E942B0A0E94E8090E9480
:100AF0009803CF91DF910895DF93CF93CDB7DEB701
:100B000028970FB6F894DEBF0FBECDBF9A838983B6
:100B10006B835D834C833F832E838B81882F90E092
:100B20009C01220F331FC901880F991F880F991F3D
:100B3000880F991F821B930BFC01EC51FF4F8081A2
:100B40009181009709F059C08B81882F90E09C011A
:100B5000220F331FC901880F991F880F991F880F13
:100B6000991F821B930BFC01E152FF4F89819A81EF
:100B7000918380838B81282F30E0C901880F991FD2
:100B8000880F991F880F991F821B930B0196880F5E
:100B9000991FFC01E152FF4F8E819F8191838083D9
:100BA0008B81882F90E09C01220F331FC901880F91
:100BB000991F880F991F880F991F821B930BFC01A7
:100BC000EC51FF4F8C819D81918380838B81882F95
:100BD00090E09C01220F331FC901880F991F880FD5
:100BE000991F880F991F821B930BFC01ED51FF4F3A
:100BF00081E0808381E0888771C08B81882F90E0BD
:100C00009C01220F331FC901880F991F880F991F5C
:100C1000880F991F821B930BFC01E551FF4F8081C8
:100C20009181009709F059C08B81882F90E09C0139
:100C3000220F331FC901880F991F880F991F880F32
:100C4000991F821B930BFC01EA51FF4F89819A8106
:100C5000918380838B81882F90E09C01220F331F2A
:100C6000C901880F991F880F991F880F991F821B30
:100C7000930BFC01E851FF4F8E819F81918380830C
:100C80008B81882F90E09C01220F331FC901880FB0
:100C9000991F880F991F880F991F821B930BFC01C6
:100CA000E551FF4F8C819D81918380838B81882FBB
:100CB00090E09C01220F331FC901880F991F880FF4
:100CC000991F880F991F821B930BFC01E651FF4F60
:100CD00081E0808381E0888701C018868885289616
:100CE0000FB6F894DEBF0FBECDBFCF91DF91089550
:100CF0000F931F93DF93CF9300D0CDB7DEB71A8247
:100D000019821A8236C119822DC18A81682F70E03A
:100D10008981282F30E0C901AC01440F551F440FD1
:100D2000551F440F551F421B530BCB019C01220F33
:100D3000331FC901880F991F880F991F880F991FAA
:100D4000821B930B840F951FFC01ED51FF4F808197
:100D5000813009F004C18A81682F70E08981282FD1
:100D600030E0C901AC01440F551F440F551F440F1B
:100D7000551F421B530BCB019C01220F331FC9018E
:100D8000880F991F880F991F880F991F821B930B3B
:100D9000840F951FFC01EF51FF4F808191810097D7
:100DA00009F099C08A81682F70E08981282F30E08E
:100DB000C901AC01440F551F440F551F440F551F67
:100DC000421B530BCB019C01220F331FC901880F1B
:100DD000991F880F991F880F991F821B930B840FEF
:100DE000951FFC01EC51FF4F80819181009709F420
:100DF000B6C08A81082F10E08981A82FB0E08A81CF
:100E0000682F70E08981282F30E0C901AC01440FC0
:100E1000551F440F551F440F551F421B530BCB0149
:100E20009C01220F331FC901880F991F880F991F3A
:100E3000880F991F821B930B840F951FFC01E152B1
:100E4000FF4F80819181BC0161507040CD01AC01A8
:100E5000440F551F440F551F440F551F4A1B5B0B72
:100E6000C8019C01220F331FC901880F991F880FE9
:100E7000991F880F991F821B930B840F951FFC01EC
:100E8000EF51FF4F718360838A81682F70E0898101
:100E9000282F30E0C901AC01440F551F440F551FE6
:100EA000440F551F421B530BCB019C01220F331FD4
:100EB000C901880F991F880F991F880F991F821BDE
:100EC000930B840F951FFC01EC51FF4F0190F081B3
:100ED000E02D099544C08A81082F10E08981682F90
:100EE00070E0CB01AC01440F551F440F551F440F58
:100EF000551F461B570BC8019C01220F331FC90108
:100F0000880F991F880F991F880F991F821B930BB9
:100F1000840F951FFC01EF51FF4F80819181DC010F
:100F20001197CB01AC01440F551F440F551F440FBF
:100F3000551F461B570BC8019C01220F331FC901C7
:100F4000880F991F880F991F880F991F821B930B79
:100F5000840F951FFC01EF51FF4FB183A08389815E
:100F60008F5F89838981823008F4CFCE8A818F5F39
:100F70008A838A81833008F4C6CE0F900F90CF9178
:100F8000DF911F910F910895DF93CF9300D000D090
:100F90000F92CDB7DEB79D838C838C819D810097A6
:100FA00009F462C01B825BC01A8252C08B81682F19
:100FB00070E08A81282F30E0C901AC01440F551F31
:100FC000440F551F440F551F421B530BCB019C016F
:100FD000220F331FC901880F991F880F991F880F8F
:100FE000991F821B930B840F951FFC01EC51FF4F3F
:100FF000208131818C819D812817390731F58B81C2
:10100000682F70E08A81282F30E0C901AC01440FBD
:10101000551F440F551F440F551F421B530BCB0147
:101020009C01220F331FC901880F991F880F991F38
:10103000880F991F821B930B840F951FFC01EC51A5
:10104000FF4F1182108282E089838A818F5F8A83B9
:101050008A81823008F4AACF8B818F5F8B838B814A
:10106000833008F4A1CF02C083E0898389810F9087
:101070000F900F900F900F90CF91DF910895DF9315
:10108000CF9300D000D00F92CDB7DEB79D838C8375
:101090008C819D81009709F462C01B825BC01A821B
:1010A00052C08B81682F70E08A81282F30E0C901FF
:1010B000AC01440F551F440F551F440F551F421BD1
:1010C000530BCB019C01220F331FC901880F991FBD
:1010D000880F991F880F991F821B930B840F951FF0
:1010E000FC01EC51FF4F208131818C819D812817BB
:1010F000390731F58B81682F70E08A81282F30E025
:10110000C901AC01440F551F440F551F440F551F13
:10111000421B530BCB019C01220F331FC901880FC7
:10112000991F880F991F880F991F821B930B840F9B
:10113000951FFC01ED51FF4F81E0808386E089839C
:101140008A818F5F8A838A81823008F4AACF8B815B
:101150008F5F8B838B81833008F4A1CF02C087E03F
:10116000898389810F900F900F900F900F90CF91EE
:10117000DF910895DF93CF9300D000D00F92CDB7C9
:10118000DEB79D838C838C819D81009709F462C0BA
:101190001B825BC01A8252C08B81682F70E08A81EB
:1011A000282F30E0C901AC01440F551F440F551FD3
:1011B000440F551F421B530BCB019C01220F331FC1
:1011C000C901880F991F880F991F880F991F821BCB
:1011D000930B840F951FFC01EC51FF4F208131814F
:1011E0008C819D812817390731F58B81682F70E03C
:1011F0008A81282F30E0C901AC01440F551F440FEC
:10120000551F440F551F421B530BCB019C01220F4E
:10121000331FC901880F991F880F991F880F991FC5
:10122000821B930B840F951FFC01ED51FF4F82E051
:10123000808384E089838A818F5F8A838A81823078
:1012400008F4AACF8B818F5F8B838B81833008F466
:10125000A1CF02C085E0898389810F900F900F9004
:101260000F900F90CF91DF910895DF93CF9300D02F
:1012700000D000D0CDB7DEB79A8389836B83898194
:101280009A81009711F18B81282F30E03E832D83C6
:101290008D819E818130910531F02D813E812230FA
:1012A000310551F010C0E981FA8181E08183E98143
:1012B000FA8181E0808307C0E981FA811182E981A6
:1012C000FA8182E080831C8202C031E03C838C8101
:1012D00026960FB6F894DEBF0FBECDBFCF91DF913B
:1012E0000895DF93CF9300D00F92CDB7DEB79A83E6
:1012F0008983E981FA818081813049F4E981FA8129
:101300001182E981FA8182E080831B8202C081E040
:101310008B838B810F900F900F90CF91DF91089569
:10132000DF93CF9300D0CDB7DEB79A838983E9816D
:10133000FA8181E08183E981FA8181E0808380E024
:101340000F900F90CF91DF910895DF93CF9300D04E
:1013500000D0CDB7DEB79A8389836B8389819A8168
:10136000009791F0E981FA818B8181838B818823B9
:1013700029F4E981FA8182E0808304C0E981FA815D
:1013800081E080831C8202C081E08C838C810F907D
:101390000F900F900F90CF91DF910895DF93CF932F
:1013A00000D0CDB7DEB79A83898381E00F900F908C
:1013B000CF91DF910895DF93CF9300D0CDB7DEB703
:1013C0009A83898381E00F900F90CF91DF910895E8
:1013D000DF93CF93CDB7DEB7A3E5B0E0E3E5F0E070
:1013E00080818F7B8C93A3E5B0E0E3E5F0E0808122
:1013F00088608C93A3E5B0E0E3E5F0E080818F7E28
:101400008C93A3E5B0E0E3E5F0E080818F7D8C93E1
:10141000ECE5F0E08DE78083A9E5B0E0E9E5F0E0F8
:10142000808182608C93A3E5B0E0E3E5F0E0808109
:1014300081608C93A3E5B0E0E3E5F0E08081826019
:101440008C93A3E5B0E0E3E5F0E080818B7F8C93A3
:10145000CF91DF910895DF93CF9300D0CDB7DEB762
:101460009A83898389819A8190930A0180930901E3
:101470000F900F90CF91DF9108951F920F920FB6AA
:101480000F9211242F933F934F935F936F937F930A
:101490008F939F93AF93BF93EF93FF93DF93CF937C
:1014A000CDB7DEB7E0910901F0910A010995CF911E
:1014B000DF91FF91EF91BF91AF919F918F917F91BC
:1014C0006F915F914F913F912F910F900FBE0F90B1
:1014D0001F901895DF93CF93CDB7DEB70E94D50349
:1014E0008DE091E02BE131E0B90125E030E040E012
:1014F00050E00E94F90382E291E061E00E94350928
:1015000080E291E06AE00E94A50926EA3AE08AE0DA
:1015100090E060E0A90120E030E00E947C0521EC31
:101520003AE085E090E061E0A90120E030E00E942F
:101530007C0521EF3AE08EE190E060E0A90120E037
:1015400030E00E947C050E946D05FFCFDF93CF93B2
:10155000CDB7DEB782E291E00E947109882371F471
:101560008DE091E061E00E9437048DE091E062E05F
:101570000E94370482E291E00E949009CF91DF91AE
:101580000895DF93CF93CDB7DEB782E291E00E945A
:101590007109882391F48DE091E02CE031E0B901EC
:1015A0000E9491048DE091E02BE031E0B9010E94AE
:1015B000910482E291E00E94900980910C018130B7
:1015C00069F49091DB0083E067E0492F0E94A3015A
:1015D0009091DB0081E089278093DB00CF91DF9140
:1015E0000895DF93CF93CDB7DEB79091DC0083E011
:1015F00067E0492F0E94A3019091DC0081E08927D8
:101600008093DC00CF91DF910895A0E0B0E0EBE0A3
:10161000FBE00C94DC0DFE01359661917191809197
:10162000260190912701AF010E944F0B2096E2E026
:101630000C94F80D0F931F93CF93DF938C01E091DF
:101640002601F0912701838181FF21C0C0E0D0E015
:101650000DC0E0912601F091270120853185BF0161
:10166000F9010995892B11F0CFEFDFEFF801819196
:101670008F01882371F7E0912601F09127012085E1
:1016800031858AE0BF01F9010995892B11F0CFEF6F
:10169000DFEFCE01DF91CF911F910F910895ABE065
:1016A000B0E0E5E5FBE00C94CC0D3C012B015A01C8
:1016B000FC0117821682838181FD03C06FEF7FEFEB
:1016C000C6C19AE0892E1E010894211C311CF30129
:1016D0002381F20123FD859123FF81912F0188232E
:1016E00009F4B2C1853239F423FD859123FF81913C
:1016F0002F01853229F490E0B3010E94420DE7CF1B
:10170000982FFF24EE249924FFE1FF15D0F09B329F
:1017100069F09C3228F4903259F0933291F40EC063
:101720009D3249F0903369F441E024C052E0F52A3B
:1017300084E0F82A28C098E0F92A25C0E0E1FE2AD2
:1017400022C0F7FC29C0892F80538A3070F4F6FE3E
:1017500005C0989C902C1124980E15C0E89CE02C94
:101760001124E80EF0E2FF2A0EC09E3229F4F6FCA6
:101770006BC140E4F42A07C09C3619F450E8F52AFE
:1017800002C0983649F4F20123FD959123FF91910F
:101790002F01992309F0B8CF892F8554833018F091
:1017A0008052833038F444E050E0A40EB51E5FE36D
:1017B00059830FC0933631F0933779F0933509F0A0
:1017C00056C020C0F5018081898342E050E0A40E1C
:1017D000B51E610101E010E012C0F501C080D180AA
:1017E000F6FC03C06FEF7FEF02C0692D70E042E0AE
:1017F00050E0A40EB51EC6010E94370D8C015FE7B4
:10180000F52214C0F501C080D180F6FC03C06FEF53
:101810007FEF02C0692D70E042E050E0A40EB51EDB
:10182000C6010E942C0D8C0150E8F52AF3FE07C07A
:101830001AC080E290E0B3010E94420DEA948E2D1E
:1018400090E008171907A8F30EC0F601F7FC859180
:10185000F7FE81916F0190E0B3010E94420DE1100B
:10186000EA94015010400115110579F7EAC0943649
:1018700011F0993669F5F7FE08C0F5012081318134
:101880004281538184E090E00AC0F501808191811A
:101890009C01442737FD4095542F82E090E0A80E2C
:1018A000B91E9FE6F92257FF09C050954095309523
:1018B00021953F4F4F4F5F4FE0E8FE2ACA01B90123
:1018C000A1012AE030E00E946E0DD82ED21840C04F
:1018D000953729F41F2D1F7E2AE030E01DC01F2DF3
:1018E000197F9F3661F0903720F4983509F0ACC02D
:1018F0000FC0903739F0983709F0A6C004C028E02F
:1019000030E00AC0106114FD146020E130E004C032
:1019100014FD166020E132E017FF08C0F501608178
:1019200071818281938144E050E008C0F50180819B
:101930009181BC0180E090E042E050E0A40EB51E31
:10194000A1010E946E0DD82ED2188FE7F82EF12239
:10195000F6FE0BC05EEFF522D91438F4F4FE07C092
:10196000F2FC05C08FEEF82202C01D2D01C0192D1A
:10197000F4FE0DC0FE01ED0DF11D8081803319F4E0
:1019800099EEF92208C01F5FF2FE05C003C08F2D3B
:10199000867809F01F5F0F2DF3FC14C0F0FE0FC016
:1019A0001E1510F09D2C0BC09D2C9E0C911A1E2D07
:1019B00006C080E290E0B3010E94420D1F5F1E1539
:1019C000C0F304C01E1510F4E11A01C0EE2404FF98
:1019D0000FC080E390E0B3010E94420D02FF1DC0E2
:1019E00001FD03C088E790E00EC088E590E00BC0E1
:1019F000802F867891F001FF02C08BE201C080E267
:101A0000F7FC8DE290E0B3010E94420D06C080E336
:101A100090E0B3010E94420D9A94D914C0F3DA9475
:101A2000F101ED0DF11D808190E0B3010E94420DA6
:101A3000DD20A9F706C080E290E0B3010E94420DCC
:101A4000EA94EE20C1F743CEF30166817781CB01A2
:101A50002B96E2E10C94E80DFC010590615070407A
:101A60000110D8F7809590958E0F9F1F0895FC0167
:101A70006150704001900110D8F7809590958E0FBD
:101A80009F1F08950F931F93CF93DF938C01EB015A
:101A90008B8181FF1BC082FF0DC02E813F818C8115
:101AA0009D812817390764F4E881F9810193F9834E
:101AB000E88306C0E885F985802F0995892B31F4E4
:101AC0008E819F8101969F838E8302C00FEF1FEF4F
:101AD000C801DF91CF911F910F910895FA01AA27B4
:101AE000283051F1203181F1E8946F936E7F6E5F61
:101AF0007F4F8F4F9F4FAF4FB1E03ED0B4E03CD00F
:101B0000670F781F891F9A1FA11D680F791F8A1FF1
:101B1000911DA11D6A0F711D811D911DA11D20D058
:101B200009F468943F912AE0269F11243019305D12
:101B30003193DEF6CF010895462F4770405D419303
:101B4000B3E00FD0C9F7F6CF462F4F70405D4A3350
:101B500018F0495D31FD4052419302D0A9F7EACF18
:101B6000B4E0A6959795879577956795BA95C9F747
:101B700000976105710508959B01AC010A2E06943A
:101B80005795479537952795BA95C9F7620F731FF3
:101B9000841F951FA01D08952F923F924F925F9230
:101BA0006F927F928F929F92AF92BF92CF92DF926D
:101BB000EF92FF920F931F93CF93DF93CDB7DEB7D2
:101BC000CA1BDB0B0FB6F894DEBF0FBECDBF099466
:101BD0002A88398848885F846E847D848C849B84BD
:101BE000AA84B984C884DF80EE80FD800C811B81CB
:101BF000AA81B981CE0FD11D0FB6F894DEBF0FBEFA
:0A1C0000CDBFED010895F894FFCF69
:101C0A0009094669666F20697320456D7074790009
:101C1A003D3D3D3D3D3D3D3D3D3D3D3D3D3D3D3DEA
:101C2A003D3D3D3D3D3D3D3D3D3D3D3D3D3D3D3DDA
:101C3A003D3D3D3D3D3D3D3D3D3D3D3D3D3D3D3DCA
:101C4A000A003D3D3D3D3D3D3D3D3D3D3D3D3D3D2A
:101C5A003D3D3D4649464F20446174613D3D3D3D11
:101C6A003D3D3D3D3D3D3D3D3D3D3D3D3D3D3D3D9A
:0E1C7A003D3D0A0020090925640A0001010011
:00000001FF
